:020000040000FA
:100000000C945D000C9485000C9485000C94850084
:100010000C9485000C9485000C9485000C9485004C
:100020000C9485000C9485000C9485000C9485003C
:100030000C9485000C9485000C9485000C9485002C
:100040000C9422040C9485000C9485000C9485007B
:100050000C9485000C9485000C9485000C9485000C
:100060000C946C040C948500000000002400270010
:100070002A0000000000250028002B0004040404CE
:100080000404040402020202020203030303030342
:10009000010204081020408001020408102001021F
:1000A00004081020000000080002010000030407FB
:1000B00000000000000000008B0511241FBECFEFE0
:1000C000D8E0DEBFCDBF11E0A0E0B1E0E0E9F3E1B0
:1000D00002C005900D92AE35B107D9F722E0AEE52A
:1000E000B1E001C01D92AB33B207E1F710E0CDE5FE
:1000F000D0E004C02197FE010E94C009CC35D10791
:10010000C9F70E94AB050C94C6090C94000090E05E
:10011000FC01EC55FF4F2491FC01E057FF4F349157
:10012000FC01E458FF4FE491EE23C9F0222339F09B
:10013000233001F1A8F4213019F1223029F1F0E047
:10014000EE0FFF1FEE58FF4FA591B4918FB7F894B3
:10015000EC91611126C030953E233C938FBF0895EA
:100160002730A9F02830C9F0243049F78091800069
:100170008F7D03C0809180008F7780938000DFCFD8
:1001800084B58F7784BDDBCF84B58F7DFBCF809125
:10019000B0008F778093B000D2CF8091B0008F7D78
:1001A000F9CF3E2BDACF3FB7F89480911F029091A0
:1001B0002002A0912102B091220226B5A89B05C081
:1001C0002F3F19F00196A11DB11D3FBFBA2FA92FD6
:1001D000982F8827BC01CD01620F711D811D911DD3
:1001E00042E0660F771F881F991F4A95D1F708953F
:1001F0008F929F92AF92BF92CF92DF92EF92FF9237
:100200006B017C010E94D3004B015C01C114D1043D
:10021000E104F104B9F00E94D300681979098A0950
:100220009B09683E73408105910580F321E0C21A65
:10023000D108E108F10888EE880E83E0981EA11C21
:10024000B11CE4CFFF90EF90DF90CF90BF90AF90C4
:100250009F908F90089508950895AF92BF92CF9286
:10026000DF92EF92FF920F931F93CF93DF936C0176
:100270007B018B01040F151FEB015E01AE18BF0857
:10028000C017D10759F06991D601ED91FC91019009
:10029000F081E02DC6010995892B79F7C501DF9121
:1002A000CF911F910F91FF90EF90DF90CF90BF9073
:1002B000AF900895089520919F01260F3327331F93
:1002C00021323105ECF42091E801FC0190E080E05E
:1002D000243069F082E00895A0919F012191AC0142
:1002E00041585E4FA40FB52FB11D2C930196861770
:1002F00098F380919F01680F60939F0180E00895BB
:1003000081E008951092E80181E08093E701109266
:10031000C20161E082E10E94870061E083E10E9406
:100320008700E9EBF0E080818E7F808380818D7F84
:10033000808388E48093B80085E48093BC000895AE
:10034000CF93DF9391E090937E018823B9F0C09121
:10035000B800D091BA008091BC008A7B8093BC0029
:1003600060E082E10E94870060E083E10E948700F4
:100370000E948201D093BA00C093B800DF91CF9160
:1003800008950895E091170280911602E81730F45D
:10039000F0E0E25AFE4F808190E008958FEF9FEFEA
:1003A000089590911702809116022FEF3FEF981752
:1003B00048F4E92FF0E0E25AFE4F208130E09F5FE1
:1003C00090931702C9010895809116029091170227
:1003D000891B990B0895CF92DF92EF92FF920F93B2
:1003E0001F93CF93DF937C01CB018A012091EE0113
:1003F000222389F0EB016B01C40ED51ECC15DD055F
:1004000069F06991D701ED91FC910190F081E02DA7
:10041000C7010995F3CF642F0E945B01C801DF91EA
:10042000CF911F910F91FF90EF90DF90CF900895A3
:10043000CF93DF931F92CDB7DEB769832091EE0192
:100440002223F9F020911402203258F021E030E00C
:10045000FC013383228390E080E00F90DF91CF9105
:10046000089580911502E82FF0E0E151FE4F998147
:1004700090838F5F809315028093140281E090E057
:10048000ECCF61E0CE0101960E945B01F7CFCF92E5
:10049000DF92EF92FF920F931F93CF93DF93FC01B4
:1004A000C48121E02093EE01C0930F021092150247
:1004B000109214028385682B83E292E00E94180256
:1004C000D0911402D13208F092C00E94D3006B0187
:1004D0007C018091E801811165C082E08093E80190
:1004E00081E08093E7018FEF8093E6011092E501B0
:1004F000D093E401AFEEB1E0E4ECF1E080E0D8139A
:1005000085C01092C3018091C301CC0FC82BC0934A
:10051000C3018091C201813009F07CC01092C201F8
:100520000E94D3006B017C018091C3018093BB00CA
:100530008091EA019091EB01A091EC01B091ED0165
:10054000892B8A2B8B2B99F00E94D3000091EA0112
:100550001091EB012091EC013091ED016C197D09B6
:100560008E099F090617170728073907E0F18091C0
:10057000BC0083FDD9CF85EC8093BC000E94D300E2
:100580006B017C018091E801823009F445C08091C3
:10059000E6018F3F61F18091E601803241F1809167
:1005A000E60125C08091EA019091EB01A091EC0158
:1005B000B091ED01892B8A2B8B2B09F48ACF0E94F5
:1005C000D3000091EA011091EB012091EC013091F0
:1005D000ED016C197D098E099F0906171707280779
:1005E000390708F076CF8091E9010E94A0011092AE
:1005F0001502109214021092EE01DF91CF911F911B
:100600000F91FF90EF90DF90CF9008959D9191937F
:100610008F5F75CF85EEB0CF8091EA019091EB01AD
:10062000A091EC01B091ED01892B8A2B8B2B09F461
:10063000A9CF0E94D3000091EA011091EB01209113
:10064000EC013091ED016C197D098E099F090617A7
:1006500017072807390708F095CFC5CF90E080E04D
:100660000895FC0101900020E9F73197AF01481B84
:10067000590BBC018FE292E00C942D018F929F9256
:10068000AF92BF920F931F93CF93DF93CDB7DEB797
:10069000A1970FB6F894DEBF0FBECDBF19A24230AE
:1006A00008F44AE08E010F5D1F4F842E912CB12C6F
:1006B000A12CA50194010E949E09E62FB901CA014F
:1006C000EA30F4F4E05DD801EE938D01232B242B66
:1006D000252B79F790E080E0109719F0CD010E946A
:1006E0003103A1960FB6F894DEBF0FBECDBFDF91E8
:1006F000CF911F910F91BF90AF909F908F900895D1
:10070000E95CE1CF0F931F93CF938C01C62F0E941A
:1007100047026C2F6460C8010E9447026C2F6B7FF8
:10072000C8010E94470283EC90E00197F1F7CF9156
:100730001F910F9108950F931F93CF93DF938C0117
:10074000D62FC42F607F642B0E94820380E1D89F44
:10075000B00111246C2BC801DF91CF911F910F9133
:100760000C948203CF93DF93CDB7DEB728970FB6F3
:10077000F894DEBF0FBECDBF98E0E0E0F1E0DE010F
:10078000119601900D929A95E1F790913702981782
:1007900010F48FEF890F90E0880F991F21E030E06F
:1007A0002C0F3D1F820F931FFC016081606840E0A9
:1007B0008FE292E028960FB6F894DEBF0FBECDBF51
:1007C000DF91CF910C949B0341E00E949B0381E059
:1007D00090E0089585ED8093BC008091EA019091AE
:1007E000EB01A091EC01B091ED010796A11DB11DA7
:1007F00023E0B695A795979587952A95D1F72091EF
:10080000BC0024FD03C01092E80108954091EA0164
:100810005091EB016091EC017091ED01452B462B5D
:10082000472B69F30097A105B10541F02AE22A950B
:10083000F1F700C00197A109B109E1CF8091E90169
:100840000C94A0011F920F920FB60F9211242F93B8
:100850003F938F939F93AF93BF9380911B0290918F
:100860001C02A0911D02B0911E0230911A0223E0D9
:10087000230F2D3758F50196A11DB11D20931A02A3
:1008800080931B0290931C02A0931D02B0931E0242
:1008900080911F0290912002A0912102B09122022A
:1008A0000196A11DB11D80931F0290932002A09379
:1008B0002102B0932202BF91AF919F918F913F91FE
:1008C0002F910F900FBE0F901F90189526E8230FC1
:1008D0000296A11DB11DD2CF1F920F920FB60F929B
:1008E00011242F933F934F935F936F937F938F9335
:1008F0009F93AF93BF93EF93FF938091B900887F4D
:10090000803609F44AC0F0F5883209F4A7C018F51A
:10091000803109F49BC0B8F4882309F4F9C0883009
:1009200009F494C0FF91EF91BF91AF919F918F9186
:100930007F916F915F914F913F912F910F900FBEDB
:100940000F901F901895883109F488C0803251F7B4
:100950008093E60114C0803409F49DC040F48033D4
:10096000B9F38833F9F68093E60185ECB0C08035A1
:1009700009F485C0883509F496C0883499F60E9438
:10098000EA03D0CF883909F48CC038F5883729F0CC
:1009900050F4883611F0803729F683E08093E8011F
:1009A0001092C10157C0883809F47BC0803919F012
:1009B000803809F0B7CF8091C101803208F071C052
:1009C000E091C10181E08E0F8093C1018091BB0055
:1009D000F0E0EF55FE4F80833DC0803B39F0E0F4FE
:1009E000803A09F479C0883A09F09CCF84E080937A
:1009F000E8011092A00110929F01E0911202F09183
:100A00001302099580919F0181110FC081E08093AD
:100A10009F0110927F0109C0803C09F4A6CF883C59
:100A200009F4A3CF883B09F07DCFE091A00181E0DC
:100A30008E0F8093A001F0E0E158FE4F80818093FB
:100A4000BB009091A00180919F0129C08091C301BA
:100A50008093BB0085EC8093BC0064CF9091E5014E
:100A60008091E401981758F5E091E50181E08E0F3F
:100A70008093E501F0E0EC53FE4F8081E9CFE091F7
:100A8000E50181E08E0F8093E5018091BB00F0E0ED
:100A9000EC53FE4F80839091E5018091E40198171B
:100AA000C8F285E8D8CFE091E50181E08E0F809310
:100AB000E5018091BB00F0E0EC53FE4F8083809114
:100AC000E70181115CCF81E08093C20184EA8093C9
:100AD000BC001092E80126CF85EC8093BC001092F8
:100AE000E8018091C101803230F4E091C101F0E071
:100AF000EF55FE4F10826091C10170E0E09110024D
:100B0000F091110281EA91E009951092C1010ACF9A
:100B10001092E60134CFE3E2F2E01382128288EE13
:100B200093E0A0E0B0E084839583A683B7838CE054
:100B300091E091838083EFE2F2E0138212828EE1F2
:100B400091E09183808380E2848384E1818784E0E3
:100B5000828713860895789484B5826084BD84B5B5
:100B6000816084BD85B5826085BD85B5816085BDA8
:100B700080916E00816080936E0010928100809160
:100B800081008260809381008091810081608093E8
:100B90008100809180008160809380008091B1000D
:100BA00084608093B1008091B00081608093B00038
:100BB00080917A00846080937A0080917A008260CC
:100BC00080937A0080917A00816080937A0080918E
:100BD0007A00806880937A001092C100EEE9F0E01C
:100BE0002491EAE8F0E084918823C1F090E0880F36
:100BF000991FFC01E859FF4FC591D491FC01EE58B3
:100C0000FF4FA591B4919FB7F8948881E22FE095AA
:100C10008E2388838C91E823EC939FBFEDE9F0E06D
:100C20002491E9E8F0E08491882399F090E0880F1E
:100C3000991FFC01E859FF4FA591B491FC01EE58B2
:100C4000FF4F859194918FB7F894EC91E22BEC9340
:100C50008FBF109217021092160210921502109276
:100C600014020E9482018BE291E090931302809320
:100C700012028CE291E09093110280931002109284
:100C8000340280913902823018F098E09093340257
:100C90008093370262E370E080E090E00E94F80009
:100CA00060913A028FE292E00E94470268EE73E0A0
:100CB00080E090E00E94F80060E38FE292E00E9402
:100CC0008203CBE4D6E4CE010197F1F760E38FE233
:100CD00092E00E9482032197F1F760E38FE292E0B5
:100CE0000E94820383E592E00197F1F760E28FE2D0
:100CF00092E00E94820360913402606240E08FE2E1
:100D000092E00E949B0384E08093350240E06CE017
:100D10008FE292E00E949B0340E061E08FE292E06C
:100D20000E949B03CBE3DFE1CE010197F1F782E064
:100D30008093360240E066E08FE292E00E949B03DF
:100D400040E062E08FE292E00E949B032197F1F77E
:100D500088E080933A0260E08FE292E00E944702CE
:100D600080E00E94B20386E291E00E94310310E429
:100D7000C0E0D0E010937C0080917A008064809382
:100D80007A0080917A0086FDFCCF80917800909166
:100D90007900909319028093180281E00E94B203B7
:100DA00084E391E00E943103C0901802D0901902B0
:100DB0000D2C000CEE08FF084AE0C701B601F7FE53
:100DC0000EC041E06DE28FE292E00E949B03662735
:100DD0007727CB016C197D098E099F094AE00E9493
:100DE0003E038CE391E00E94310360911802709100
:100DF0001902072E000C880B990B0E9477082AE035
:100E000038E240EA5BE30E942C096B017C014B0154
:100E10005C0182E00E94B20381E491E00E94310310
:100E2000A7019601C701B6010E949909882331F1F3
:100E30008BE491E00E94310387E591E00E94310349
:100E400061E08DE00E948700C0901802D0901902E6
:100E50000D2C000CEE08FF08C701B6010E94F80037
:100E600060E08DE00E948700C701B6010E94F80093
:100E7000209709F47FCF0E9400007CCF2601370124
:100E8000E89477F82FEF3FEF4FE75FE7C301B20138
:100E90000E94990981110DC02FEF3FEF4FE75FE7E7
:100EA000C301B2010E94410818161CF48FE491E0BE
:100EB000C1CF2FEF3FEF4FE75FE4C701B6010E94BC
:100EC000270918161CF483E591E0B4CF2FEF3FEF0C
:100ED0004FE75FECC701B6010E94410887FDF3CFE1
:100EE00020E030E0A901C701B6010E94410887FF58
:100EF0000CC041E06DE28FE292E00E949B0346014C
:100F00005701B7FAB094B7F8B0942AE037ED43EA46
:100F10005BE3C501B4010E94D5074B015C010E944F
:100F200046086B017C010E9475089B01AC01C5015C
:100F3000B4010E94D4074B015C014AE0C701B6012D
:100F40000E943E0341E06EE28FE292E00E949B032A
:100F500020E030E040E251E4C501B4010E942C09D8
:100F60004B015C010E9446086B01F12CE12C4AE028
:100F7000C701B6010E943E03C701B6010E94750871
:100F80009B01AC01C501B4010E94D40720E030E010
:100F900040E251E40E942C090E94460890E080E063
:100FA0004AE00E943E0348CF5058BB27AA270E9420
:100FB000EC070C94ED080E94DF0838F00E94E60868
:100FC00020F039F49F3F19F426F40C94DC080EF459
:100FD000E095E7FB0C94D608E92F0E94FE0858F331
:100FE000BA17620773078407950720F079F4A6F50E
:100FF0000C9420090EF4E0950B2EBA2FA02D0B01B6
:10100000B90190010C01CA01A0011124FF27591B4D
:1010100099F0593F50F4503E68F11A16F040A22F53
:10102000232F342F4427585FF3CF469537952795C4
:10103000A795F0405395C9F77EF41F16BA0B620BC3
:10104000730B840BBAF09150A1F0FF0FBB1F661F0A
:10105000771F881FC2F70EC0BA0F621F731F841F4D
:1010600048F4879577956795B795F7959E3F08F073
:10107000B0CF9395880F08F09927EE0F9795879535
:1010800008950E94B20808F481E008950E940609BC
:1010900088F09F5798F0B92F9927B751B0F0E1F039
:1010A000660F771F881F991F1AF0BA95C9F714C0E9
:1010B000B13091F00E942009B1E008950C9420090C
:1010C000672F782F8827B85F39F0B93FCCF3869522
:1010D00077956795B395D9F73EF49095809570957F
:1010E00061957F4F8F4F9F4F0895E89409C097FBFC
:1010F0003EF490958095709561957F4F8F4F9F4FEF
:101100009923A9F0F92F96E9BB279395F695879532
:1011100077956795B795F111F8CFFAF4BB0F11F4F5
:1011200060FF1BC06F5F7F4F8F4F9F4F16C088239C
:1011300011F096E911C0772321F09EE8872F762FD2
:1011400005C0662371F096E8862F70E060E02AF013
:101150009A95660F771F881FDAF7880F96958795FF
:1011600097F90895990F0008550FAA0BE0E8FEEFD4
:1011700016161706E807F907C0F012161306E4075B
:10118000F50798F0621B730B840B950B39F40A2654
:1011900061F0232B242B252B21F408950A2609F432
:1011A000A140A6958FEF811D811D089597F99F6736
:1011B00080E870E060E008959FEF80EC08950024DF
:1011C0000A941616170618060906089500240A94AC
:1011D00012161306140605060895092E0394000C32
:1011E00011F4882352F0BB0F40F4BF2B11F460FFC1
:1011F00004C06F5F7F4F8F4F9F4F089557FD9058EA
:10120000440F551F59F05F3F71F04795880F97FBCA
:10121000991F61F09F3F79F0879508951216130684
:101220001406551FF2CF4695F1DF08C016161706B3
:101230001806991FF1CF86957105610508940895E8
:10124000E894BB2766277727CB0197F908950E947A
:10125000B20808F48FEF08950E943F090C94ED083E
:101260000E94DF0838F00E94E60820F0952311F074
:101270000C94D6080C94DC0811240C9421090E94CB
:10128000FE0870F3959FC1F3950F50E0551F629FC4
:10129000F001729FBB27F00DB11D639FAA27F00DCF
:1012A000B11DAA1F649F6627B00DA11D661F829FF6
:1012B0002227B00DA11D621F739FB00DA11D621FDB
:1012C000839FA00D611D221F749F3327A00D611DF8
:1012D000231F849F600D211D822F762F6A2F1124DA
:1012E0009F5750409AF0F1F088234AF0EE0FFF1F0D
:1012F000BB1F661F771F881F91505040A9F79E3F64
:10130000510580F00C94D6080C9421095F3FE4F35A
:10131000983ED4F3869577956795B795F795E795B9
:101320009F5FC1F7FE2B880F911D9695879597F9C2
:1013300008950E94B208880B990B0895A1E21A2E15
:10134000AA1BBB1BFD010DC0AA1FBB1FEE1FFF1F69
:10135000A217B307E407F50720F0A21BB30BE40BB9
:10136000F50B661F771F881F991F1A9469F7609500
:101370007095809590959B01AC01BD01CF010895BA
:10138000EE0FFF1F0590F491E02D0994F894FFCF24
:101390000000400014005400000000001802EB019F
:1013A0002E03C101E401D101C20100000000E403E9
:1013B0002D012E035A01506F74656E74696F6D654F
:1013C0007465720056616C75653A200020202020FB
:1013D00000566F6C746167653A20006E616E00693B
:0E13E0006E66006F766600205620202000000A
:107E0000112484B714BE81FFF0D085E080938100F7
:107E100082E08093C00088E18093C10086E0809377
:107E2000C20080E18093C4008EE0C9D0259A86E02C
:107E300020E33CEF91E0309385002093840096BBD3
:107E4000B09BFECF1D9AA8958150A9F7CC24DD24C4
:107E500088248394B5E0AB2EA1E19A2EF3E0BF2EE7
:107E6000A2D0813461F49FD0082FAFD0023811F036
:107E7000013811F484E001C083E08DD089C08234E0
:107E800011F484E103C0853419F485E0A6D080C0E4
:107E9000853579F488D0E82EFF2485D0082F10E0AE
:107EA000102F00270E291F29000F111F8ED06801E7
:107EB0006FC0863521F484E090D080E0DECF843638
:107EC00009F040C070D06FD0082F6DD080E0C81688
:107ED00080E7D80618F4F601B7BEE895C0E0D1E017
:107EE00062D089930C17E1F7F0E0CF16F0E7DF06D8
:107EF00018F0F601B7BEE89568D007B600FCFDCFD4
:107F0000A601A0E0B1E02C9130E011968C91119780
:107F100090E0982F8827822B932B1296FA010C0160
:107F200087BEE89511244E5F5F4FF1E0A038BF0790
:107F300051F7F601A7BEE89507B600FCFDCF97BE46
:107F4000E89526C08437B1F42ED02DD0F82E2BD052
:107F50003CD0F601EF2C8F010F5F1F4F84911BD097
:107F6000EA94F801C1F70894C11CD11CFA94CF0C13
:107F7000D11C0EC0853739F428D08EE10CD085E9AC
:107F80000AD08FE07ACF813511F488E018D01DD067
:107F900080E101D065CF982F8091C00085FFFCCF94
:107FA0009093C60008958091C00087FFFCCF809118
:107FB000C00084FD01C0A8958091C6000895E0E648
:107FC000F0E098E1908380830895EDDF803219F02E
:107FD00088E0F5DFFFCF84E1DECF1F93182FE3DFCA
:107FE0001150E9F7F2DF1F91089580E0E8DFEE27F6
:047FF000FF270994CA
:027FFE00040479
:00000001FF
