:020000040000FA
:100000000C945E000C9486000C9486000C94860080
:100010000C9486000C9486000C9486000C94B20517
:100020000C9486000C9486000C9486000C94860038
:100030000C9486000C9486000C9486000C94860028
:100040000C9468050C9486000C9434060C940E06EF
:100050000C9486000C9486000C9486000C94860008
:100060000C9466060C948600020000000024002711
:10007000002A0000000000250028002B00040404D2
:100080000404040404020202020202030303030341
:10009000030102040810204080010204081020011E
:1000A0000204081020000000080002010000030400
:1000B00007000000000000000000850711241FBE9B
:1000C000CFEFD8E0DEBFCDBF11E0A0E0B1E0EAE3C2
:1000D000F5E102C005900D92A03AB107D9F723E0EF
:1000E000A0EAB1E001C01D92A932B207E1F710E029
:1000F000CEE5D0E004C02197FE010E94950ACD35DF
:10010000D107C9F70E94CD070C949B0A0C940000FC
:1001100090E0FC01EB55FF4F2491FC01EF56FF4F9F
:100120003491FC01E358FF4FE491EE23C9F0222300
:1001300039F0233001F1A8F4213019F1223029F1EE
:10014000F0E0EE0FFF1FED58FF4FA591B4918FB770
:10015000F894EC91611126C030953E233C938FBFFB
:1001600008952730A9F02830C9F0243049F780914C
:1001700080008F7D03C0809180008F778093800006
:10018000DFCF84B58F7784BDDBCF84B58F7DFBCF88
:100190008091B0008F778093B000D2CF8091B00073
:1001A0008F7DF9CF3E2BDACFCF93DF9390E0FC0128
:1001B000EF56FF4F249183589F4FFC018491882371
:1001C000D1F090E0880F991FFC01E759FF4FA591EE
:1001D000B491FC01ED58FF4FC591D49161110EC04F
:1001E0009FB7F8948C91E22FE0958E238C93288111
:1001F000E223E8839FBFDF91CF9108958FB7F894F2
:10020000EC91E22BEC938FBFF6CF3FB7F89480913F
:10021000700290917102A0917202B091730226B5A2
:10022000A89B05C02F3F19F00196A11DB11D3FBF2E
:10023000BA2FA92F982F8827BC01CD01620F711DFD
:10024000811D911D42E0660F771F881F991F4A95F7
:10025000D1F708958F929F92AF92BF92CF92DF9283
:10026000EF92FF924B015C010E9405016B017C0142
:100270000E9405016C197D098E099F09683E734033
:1002800081059105A8F321E0821A9108A108B1081F
:1002900088EEC80E83E0D81EE11CF11C8114910485
:1002A000A104B10429F7FF90EF90DF90CF90BF90A9
:1002B000AF909F908F9008950895089590910001B8
:1002C00089130BC0E8E6F0E0E4919FEF9093000102
:1002D000E13049F028F0E23061F060E00C948800F1
:1002E00010926E00FACF90916F009D7F90936F00F7
:1002F000F4CF909170009D7F9093700091E0909367
:10030000B0009091B100987F94609093B1001092EA
:10031000B300E3CFAF92BF92CF92DF92EF92FF9202
:100320000F931F93CF93DF936C017B018B01040F1D
:10033000151FEB015E01AE18BF08C017D10759F0B9
:100340006991D601ED91FC910190F081E02DC601FB
:100350000995892B79F7C501DF91CF911F910F91F5
:10036000FF90EF90DF90CF90BF90AF900895FC0189
:10037000538D448D252F30E0842F90E0821B930B0A
:10038000541710F0CF96089501970895FC01918DB0
:10039000828D981761F0A28DAE0FBF2FB11D5D96B3
:1003A0008C91928D9F5F9F73928F90E008958FEF55
:1003B0009FEF0895FC01918D828D981731F0828D09
:1003C000E80FF11D858D90E008958FEF9FEF089560
:1003D000FC01918D228D892F90E0805C9F4F821BC4
:1003E00091098F739927089584E792E00E94E801AC
:1003F00021E0892B09F420E0822F089580E090E02D
:10040000892B29F00E94F40181110C9400000895B9
:10041000FC01A48DA80FB92FB11DA35ABF4F2C9179
:10042000848D90E001968F739927848FA689B78970
:100430002C93A089B1898C91837080648C93938D67
:10044000848D981306C00288F389E02D80818F7D0A
:1004500080830895EF92FF920F931F93CF93DF93C2
:10046000EC0181E0888F9B8D8C8D98131AC0E889F0
:10047000F989808185FF15C09FB7F894EE89FF89BF
:100480006083E889F98980818370806480839FBF5D
:1004900081E090E0DF91CF911F910F91FF90EF905D
:1004A0000895F62E0B8D10E00F5F1F4F0F7311276D
:1004B000E02E8C8D8E110CC00FB607FCFACFE889A8
:1004C000F989808185FFF5CFCE010E940802F1CF26
:1004D000EB8DEC0FFD2FF11DE35AFF4FF0829FB71C
:1004E000F8940B8FEA89FB8980818062CFCFCF930C
:1004F000DF93EC01888D8823B9F0AA89BB89E8894C
:10050000F9898C9185FD03C0808186FD0DC00FB6F1
:1005100007FCF7CF8C9185FFF2CF808185FFEDCF6F
:10052000CE010E940802E9CFDF91CF91089508958E
:100530002091E101260F3327331F21323105ECF4DE
:1005400020912A02FC0190E080E0243069F082E0F2
:100550000895A091E1012191AC014F535E4FA40F8A
:10056000B52FB11D2C930196861798F38091E10168
:10057000680F6093E10180E0089581E00895109292
:100580002A0281E0809329021092040261E082E154
:100590000E94880061E083E10E948800E9EBF0E0BE
:1005A00080818E7F808380818D7F808388E48093AB
:1005B000B80085E48093BC000895CF93DF9391E069
:1005C0009093C0018823B9F0C091B800D091BA00CF
:1005D0008091BC008A7B8093BC0060E082E10E9435
:1005E000880060E083E10E9488000E94BF02D093EF
:1005F000BA00C093B800DF91CF9108950895E091BB
:10060000590280915802E81730F4F0E0E056FE4FAE
:10061000808190E008958FEF9FEF089590915902A7
:10062000809158022FEF3FEF981748F4E92FF0E040
:10063000E056FE4F208130E09F5F90935902C90140
:1006400008958091580290915902891B990B089541
:10065000CF92DF92EF92FF920F931F93CF93DF938E
:100660007C01CB018A0120913002222389F0EB0129
:100670006B01C40ED51ECC15DD0569F06991D7015B
:10068000ED91FC910190F081E02DC7010995F3CF28
:10069000642F0E949802C801DF91CF911F910F91A2
:1006A000FF90EF90DF90CF900895CF93DF931F924C
:1006B000CDB7DEB76983209130022223F9F0209173
:1006C0005602203258F021E030E0FC0133832283CF
:1006D00090E080E00F90DF91CF91089580915702D4
:1006E000E82FF0E0EF5CFD4F998190838F5F80935E
:1006F00057028093560281E090E0ECCF61E0CE019A
:1007000001960E949802F7CFCF92DF92EF92FF926C
:100710000F931F93CF93DF93FC01C48121E02093BB
:100720003002C093510210925702109256028385F4
:10073000682B81E193E00E945503D0915602D1329B
:1007400008F092C00E9405016B017C0180912A0291
:10075000811165C082E080932A0281E080932902A2
:100760008FEF8093280210922702D0932602A1E3F4
:10077000B2E0E6E0F2E080E0D81385C01092050216
:1007800080910502CC0FC82BC09305028091040212
:10079000813009F07CC0109204020E9405016B01B7
:1007A0007C01809105028093BB0080912C02909186
:1007B0002D02A0912E02B0912F02892B8A2B8B2B18
:1007C00099F00E94050100912C0210912D022091B8
:1007D0002E0230912F026C197D098E099F09061790
:1007E000170728073907E0F18091BC0083FDD9CFB6
:1007F00085EC8093BC000E9405016B017C01809117
:100800002A02823009F445C0809128028F3F61F1AD
:1008100080912802803241F18091280225C0809188
:100820002C0290912D02A0912E02B0912F02892BC3
:100830008A2B8B2B09F48ACF0E94050100912C0290
:1008400010912D0220912E0230912F026C197D09FA
:100850008E099F09061717072807390708F076CF72
:1008600080912B020E94DD021092570210925602D4
:1008700010923002DF91CF911F910F91FF90EF9076
:10088000DF90CF9008959D9191938F5F75CF85EE06
:10089000B0CF80912C0290912D02A0912E02B091A8
:1008A0002F02892B8A2B8B2B09F4A9CF0E940501DB
:1008B00000912C0210912D0220912E0230912F02D6
:1008C0006C197D098E099F09061717072807390734
:1008D00008F095CFC5CF90E080E008950F931F9367
:1008E000CF938C01C62F0E9484036C2F6460C801D3
:1008F0000E9484036C2F6B7FC8010E94840383ECE9
:1009000090E00197F1F7CF911F910F9108950F9308
:100910001F93CF93DF938C01D62FC42F607F642B5E
:100920000E946E0480E1D89FB00111246C2BC80195
:10093000DF91CF911F910F910C946E04CF93DF93B1
:10094000CDB7DEB728970FB6F894DEBF0FBECDBF88
:1009500098E0E1E0F1E0DE01119601900D929A95A8
:10096000E1F790912503981708F48FEF90E0880F36
:10097000991F21E030E02C0F3D1F820F931FFC01D7
:100980006081606840E08DE193E028960FB6F894AE
:10099000DEBF0FBECDBFDF91CF910C94870441E045
:1009A0000E94870481E090E00895FB0101900020FF
:1009B000E9F73197AF01461B570BDC01ED91FC9134
:1009C0000280F381E02D09948F929F92AF92BF92A3
:1009D000EF92FF920F931F93CF93DF93CDB7DEB7C4
:1009E000A1970FB6F894DEBF0FBECDBF7C01FA0110
:1009F000CB0119A2223008F42AE08E010F5D1F4FAF
:100A0000822E912CB12CA12CBF01A50194010E9432
:100A1000730AF901CA016A300CF5605DD8016E9362
:100A20008D01232B242B252B79F790E080E0109764
:100A300021F0BD01C7010E94D504A1960FB6F8941C
:100A4000DEBF0FBECDBFDF91CF911F910F91FF9001
:100A5000EF90BF90AF909F908F900895695CDECF2C
:100A600085ED8093BC0080912C0290912D02A09185
:100A70002E02B0912F020796A11DB11D23E0B6955D
:100A8000A795979587952A95D1F72091BC0024FDCD
:100A900003C010922A02089540912C0250912D0219
:100AA00060912E0270912F02452B462B472B69F344
:100AB0000097A105B10541F02AE22A95F1F700C09F
:100AC0000197A109B109E1CF80912B020C94DD02BD
:100AD0001F920F920FB60F9211242F933F938F9373
:100AE0009F93AF93BF9380916C0290916D02A09100
:100AF0006E02B0916F0230916B0223E0230F2D370D
:100B000058F50196A11DB11D20936B0280936C02D4
:100B100090936D02A0936E02B0936F028091700269
:100B200090917102A0917202B09173020196A11D81
:100B3000B11D8093700290937102A0937202B093E2
:100B40007302BF91AF919F918F913F912F910F9021
:100B50000FBE0F901F90189526E8230F0296A11D37
:100B6000B11DD2CF1F920F920FB60F9211242F9367
:100B70003F934F935F936F937F938F939F93AF9325
:100B8000BF93EF93FF9380915F0290916002A091D9
:100B90006102B0916202892B8A2B8B2BD1F190914B
:100BA0005A02E0915B02F0915C0280818927808388
:100BB00080915F0290916002A0916102B091620207
:100BC000181619061A061B069CF480915F02909174
:100BD0006002A0916102B09162020197A109B1097E
:100BE00080935F0290936002A0936102B0936202CF
:100BF000FF91EF91BF91AF919F918F917F916F91F5
:100C00005F914F913F912F910F900FBE0F901F90CA
:100C10001895809100010E945E01EACF1F920F9209
:100C20000FB60F9211242F933F934F935F936F93BF
:100C30007F938F939F93AF93BF93EF93FF9384E73B
:100C400092E00E940802FF91EF91BF91AF919F91B6
:100C50008F917F916F915F914F913F912F910F9065
:100C60000FBE0F901F9018951F920F920FB60F9204
:100C700011242F938F939F93EF93FF93E09184021E
:100C8000F09185028081E0918A02F0918B0282FDD1
:100C90001BC0908180918D028F5F8F7320918E0297
:100CA000821741F0E0918D02F0E0EC58FD4F958FF6
:100CB00080938D02FF91EF919F918F912F910F90D3
:100CC0000FBE0F901F9018958081F4CF1F920F9246
:100CD0000FB60F9211242F933F934F935F936F930F
:100CE0007F938F939F93AF93BF93EF93FF938091E5
:100CF000B900887F803609F44AC0F0F5883209F4DB
:100D0000A7C018F5803109F49BC0B8F4882309F412
:100D1000F9C0883009F494C0FF91EF91BF91AF9171
:100D20009F918F917F916F915F914F913F912F9103
:100D30000F900FBE0F901F901895883109F488C04E
:100D4000803251F78093280214C0803409F49DC08A
:100D500040F48033B9F38833F9F68093280285ECA8
:100D6000B0C0803509F485C0883509F496C0883450
:100D700099F60E943005D0CF883909F48CC038F537
:100D8000883729F050F4883611F0803729F683E04F
:100D900080932A021092030257C0883809F47BC05E
:100DA000803919F0803809F0B7CF80910302803282
:100DB00008F071C0E091030281E08E0F809303027E
:100DC0008091BB00F0E0ED51FE4F80833DC0803B41
:100DD00039F0E0F4803A09F479C0883A09F09CCF00
:100DE00084E080932A021092E2011092E101E091E6
:100DF0005402F091550209958091E10181110FC0D3
:100E000081E08093E1011092C10109C0803C09F4A6
:100E1000A6CF883C09F4A3CF883B09F07DCFE091B1
:100E2000E20181E08E0F8093E201F0E0EF53FE4F8C
:100E300080818093BB009091E2018091E10129C003
:100E4000809105028093BB0085EC8093BC0064CF49
:100E50009091270280912602981758F5E091270279
:100E600081E08E0F80932702F0E0EA5FFD4F8081E2
:100E7000E9CFE091270281E08E0F809327028091D5
:100E8000BB00F0E0EA5FFD4F8083909127028091E4
:100E900026029817C8F285E8D8CFE091270281E0B2
:100EA0008E0F809327028091BB00F0E0EA5FFD4F38
:100EB00080838091290281115CCF81E080930402BC
:100EC00084EA8093BC0010922A0226CF85EC80939E
:100ED000BC0010922A0280910302803230F4E0912B
:100EE0000302F0E0ED51FE4F10826091030270E0CA
:100EF000E0915202F091530283EE91E00995109235
:100F000003020ACF1092280234CFE4E7F2E0138202
:100F1000128288EE93E0A0E0B0E084839583A683FC
:100F2000B7832DE031E03183208325EC30E0358735
:100F3000248724EC30E03787268720EC30E0318BA3
:100F4000208B21EC30E0338B228B22EC30E0358B90
:100F5000248B26EC30E0378B268B118E128E138E6D
:100F6000148EE1E1F3E01382128284839583A683D9
:100F7000B7838FE191E091838083EDE1F3E0138209
:100F8000128281E391E09183808387E2848380E110
:100F9000818782E0828713860895789484B5826081
:100FA00084BD84B5816084BD85B5826085BD85B50D
:100FB000816085BD80916E00816080936E0010928B
:100FC0008100809181008260809381008091810006
:100FD0008160809381008091800081608093800097
:100FE0008091B10084608093B1008091B0008160F5
:100FF0008093B00080917A00846080937A00809121
:101000007A00826080937A0080917A008160809378
:101010007A0080917A00806880937A001092C100F3
:10102000E0918402F091850282E08083E091800269
:10103000F09181021082E0918202F09183028FECA4
:10104000808310928C02E0918802F091890286E000
:101050008083E0918602F0918702808180618083A5
:10106000E0918602F0918702808188608083E09120
:101070008602F0918702808180688083E0918602F9
:10108000F091870280818F7D808360E08EE00E94F6
:10109000D40061E08DE00E94D40061E089E00E940C
:1010A000D4001092590210925802109257021092D6
:1010B00056020E94BF028CE591E090935502809306
:1010C00054028DE591E09093530280935202109266
:1010D000220380912703823018F098E09093220336
:1010E0008093250362E370E080E090E00E942A0193
:1010F000609128038DE193E00E94840368EE73E021
:1011000080E090E00E942A0160E38DE193E00E947C
:101110006E04CBE4D6E4CE010197F1F760E38DE1F4
:1011200093E00E946E042197F1F760E38DE193E074
:101130000E946E0483E592E00197F1F760E28DE191
:1011400093E00E946E0460912203606240E08DE1B2
:1011500093E00E94870484E08093230340E06CE0E6
:101160008DE193E00E94870440E061E08DE193E02F
:101170000E948704CBE3DFE1CE010197F1F782E023
:101180008093240340E066E08DE193E00E948704B1
:1011900040E062E08DE193E00E948704CE01019778
:1011A000F1F788E08093280360E08DE193E00E94EE
:1011B000840380E00E949E0469E371E08DE193E086
:1011C0000E94D50481E00E949E0466E471E08DE1F6
:1011D00093E00E94D50464E571E084E792E00E9408
:1011E000D5046DE671E084E792E00E94D50460E2E8
:1011F0007EE480E090E00E942A0140E061E08DE121
:1012000093E00E9487042197F1F73FE3232E3FE10B
:10121000332E46E8842E40E0942E0AE910E0442460
:101220004A94542C3201D0E4D0937C0080917A000F
:10123000806480937A0080917A0086FDFCCFA09034
:101240007800B090790080E00E949E0467E971E028
:101250008DE193E00E94D50465010B2C000CEE0893
:10126000FF082AE0B701A601F7FE0EC041E06DE2DB
:101270008DE193E00E94870444275527BA014C1959
:101280005D096E097F092AE08DE193E00E94E40484
:101290006BE871E08DE193E00E94D50481E00E944B
:1012A0009E048DE2A81681E0B8060CF40EC160E73A
:1012B00071E08DE193E00E94D50461E08DE00E9431
:1012C000880080910001893031F5E8E6F0E0C491B2
:1012D000C7FDBEC061E089E00E94D400CC2309F4C0
:1012E00089C0C23009F09AC08091B100887F8360C4
:1012F0008093B10089EF8093B30040925F025092D7
:10130000600260926102709262028091700082605D
:10131000809370009DC08F3F09F09AC089E0809350
:101320000001E8E6F0E0C491CF3F09F491C0C1307C
:1013300019F150F0C23009F43CC0C7FD89C061E02A
:1013400089E00E94D400CDCF14BC15BC84B5826066
:1013500084BD85B5816085BDF4018491E82FF0E0FE
:10136000EE0FFF1FED58FF4F85919491F801849186
:1013700080935E02C0E0AECF109280001092810098
:1013800080918100886080938100809181008160DC
:1013900080938100F4018491E82FF0E0EE0FFF1FAD
:1013A000ED58FF4F85919491F801849180935D02EF
:1013B00091CF1092B0001092B1008091B000826085
:1013C0008093B0008091B10081608093B100F401FE
:1013D0008491E82FF0E0EE0FFF1FED58FF4F85914D
:1013E000949190935C0280935B02F80184918093C6
:1013F0005A0270CF85B5887F836085BD8CE787BD35
:1014000040926702509268026092690270926A028A
:1014100080916E00826080936E001AC0C13009F026
:101420004CC080918100887F8160809381003092E0
:101430008900209288004092630250926402609278
:1014400065027092660280916F00826080936F00E7
:1014500060E971E084E792E00E94D5042AE0B701D8
:10146000A601F7FE0DC06DE284E792E00E942A0219
:1014700044275527BA014C195D096E097F092AE0F6
:1014800084E792E00E94E4046DE671E084E792E074
:101490000E94D50468EE73E080E090E00E942A018B
:1014A00080E090E0892B09F4BFCE0E94F4018823EC
:1014B00009F4B9CE0E940000B6CEC23021F0C111AD
:1014C000C7CF8FE39CCF8FE316CF60E871E08DE14B
:1014D00093E00E94D50460E08DE00E94880089E0DE
:1014E0000E945E01B5CFA1E21A2EAA1BBB1BFD0113
:1014F0000DC0AA1FBB1FEE1FFF1FA217B307E407F3
:10150000F50720F0A21BB30BE40BF50B661F771F4A
:10151000881F991F1A9469F760957095809590952A
:101520009B01AC01BD01CF010895EE0FFF1F059097
:10153000F491E02D0994F894FFCFFF0000400014CF
:10154000005400000000002A028A01B7017702E877
:1015500001C601DA0100000000550328036B04FEF8
:101560000221030E03FF0200000000CF048A016B7A
:10157000049702476173204465746563746F720059
:101580005761726D696E672055702E2E2E0047616F
:1015900073204465746563746F7220537461727450
:1015A000696E672E2E2E000D0A0047617320446578
:1015B000746563746564212020004E6F2047617359
:1015C0002020202020202020200053656E736F7281
:0A15D0002056616C75653A2000009A
:107E0000112484B714BE81FFF0D085E080938100F7
:107E100082E08093C00088E18093C10086E0809377
:107E2000C20080E18093C4008EE0C9D0259A86E02C
:107E300020E33CEF91E0309385002093840096BBD3
:107E4000B09BFECF1D9AA8958150A9F7CC24DD24C4
:107E500088248394B5E0AB2EA1E19A2EF3E0BF2EE7
:107E6000A2D0813461F49FD0082FAFD0023811F036
:107E7000013811F484E001C083E08DD089C08234E0
:107E800011F484E103C0853419F485E0A6D080C0E4
:107E9000853579F488D0E82EFF2485D0082F10E0AE
:107EA000102F00270E291F29000F111F8ED06801E7
:107EB0006FC0863521F484E090D080E0DECF843638
:107EC00009F040C070D06FD0082F6DD080E0C81688
:107ED00080E7D80618F4F601B7BEE895C0E0D1E017
:107EE00062D089930C17E1F7F0E0CF16F0E7DF06D8
:107EF00018F0F601B7BEE89568D007B600FCFDCFD4
:107F0000A601A0E0B1E02C9130E011968C91119780
:107F100090E0982F8827822B932B1296FA010C0160
:107F200087BEE89511244E5F5F4FF1E0A038BF0790
:107F300051F7F601A7BEE89507B600FCFDCF97BE46
:107F4000E89526C08437B1F42ED02DD0F82E2BD052
:107F50003CD0F601EF2C8F010F5F1F4F84911BD097
:107F6000EA94F801C1F70894C11CD11CFA94CF0C13
:107F7000D11C0EC0853739F428D08EE10CD085E9AC
:107F80000AD08FE07ACF813511F488E018D01DD067
:107F900080E101D065CF982F8091C00085FFFCCF94
:107FA0009093C60008958091C00087FFFCCF809118
:107FB000C00084FD01C0A8958091C6000895E0E648
:107FC000F0E098E1908380830895EDDF803219F02E
:107FD00088E0F5DFFFCF84E1DECF1F93182FE3DFCA
:107FE0001150E9F7F2DF1F91089580E0E8DFEE27F6
:047FF000FF270994CA
:027FFE00040479
:00000001FF
